{
  "contractName": "Voting",
  "abi": [
    {
      "inputs": [
        {
          "internalType": "string",
          "name": "_eventName",
          "type": "string"
        }
      ],
      "stateMutability": "nonpayable",
      "type": "constructor"
    },
    {
      "anonymous": false,
      "inputs": [
        {
          "indexed": false,
          "internalType": "string",
          "name": "msg",
          "type": "string"
        }
      ],
      "name": "success",
      "type": "event"
    },
    {
      "inputs": [
        {
          "internalType": "uint256",
          "name": "",
          "type": "uint256"
        }
      ],
      "name": "candidateList",
      "outputs": [
        {
          "internalType": "string",
          "name": "name",
          "type": "string"
        },
        {
          "internalType": "uint256",
          "name": "age",
          "type": "uint256"
        },
        {
          "internalType": "bool",
          "name": "registered",
          "type": "bool"
        },
        {
          "internalType": "address",
          "name": "candidateAddress",
          "type": "address"
        },
        {
          "internalType": "uint256",
          "name": "votes",
          "type": "uint256"
        }
      ],
      "stateMutability": "view",
      "type": "function",
      "constant": true
    },
    {
      "inputs": [
        {
          "internalType": "address",
          "name": "",
          "type": "address"
        }
      ],
      "name": "candidates",
      "outputs": [
        {
          "internalType": "uint256",
          "name": "",
          "type": "uint256"
        }
      ],
      "stateMutability": "view",
      "type": "function",
      "constant": true
    },
    {
      "inputs": [],
      "name": "eventName",
      "outputs": [
        {
          "internalType": "string",
          "name": "",
          "type": "string"
        }
      ],
      "stateMutability": "view",
      "type": "function",
      "constant": true
    },
    {
      "inputs": [],
      "name": "owner",
      "outputs": [
        {
          "internalType": "address",
          "name": "",
          "type": "address"
        }
      ],
      "stateMutability": "view",
      "type": "function",
      "constant": true
    },
    {
      "inputs": [],
      "name": "totalRegisteredVoters",
      "outputs": [
        {
          "internalType": "uint256",
          "name": "",
          "type": "uint256"
        }
      ],
      "stateMutability": "view",
      "type": "function",
      "constant": true
    },
    {
      "inputs": [],
      "name": "totalVote",
      "outputs": [
        {
          "internalType": "uint256",
          "name": "",
          "type": "uint256"
        }
      ],
      "stateMutability": "view",
      "type": "function",
      "constant": true
    },
    {
      "inputs": [],
      "name": "totalVoters",
      "outputs": [
        {
          "internalType": "uint256",
          "name": "",
          "type": "uint256"
        }
      ],
      "stateMutability": "view",
      "type": "function",
      "constant": true
    },
    {
      "inputs": [
        {
          "internalType": "address",
          "name": "",
          "type": "address"
        }
      ],
      "name": "voterList",
      "outputs": [
        {
          "internalType": "bool",
          "name": "registered",
          "type": "bool"
        },
        {
          "internalType": "bool",
          "name": "voted",
          "type": "bool"
        }
      ],
      "stateMutability": "view",
      "type": "function",
      "constant": true
    },
    {
      "inputs": [],
      "name": "winnerAddress",
      "outputs": [
        {
          "internalType": "address",
          "name": "",
          "type": "address"
        }
      ],
      "stateMutability": "view",
      "type": "function",
      "constant": true
    },
    {
      "inputs": [
        {
          "internalType": "string",
          "name": "_name",
          "type": "string"
        },
        {
          "internalType": "uint256",
          "name": "_age",
          "type": "uint256"
        },
        {
          "internalType": "address",
          "name": "_candidateAddress",
          "type": "address"
        }
      ],
      "name": "registerCandidates",
      "outputs": [],
      "stateMutability": "nonpayable",
      "type": "function"
    },
    {
      "inputs": [
        {
          "internalType": "address",
          "name": "_voterAddress",
          "type": "address"
        }
      ],
      "name": "whiteListAddress",
      "outputs": [],
      "stateMutability": "nonpayable",
      "type": "function"
    },
    {
      "inputs": [],
      "name": "startVoting",
      "outputs": [],
      "stateMutability": "nonpayable",
      "type": "function"
    },
    {
      "inputs": [
        {
          "internalType": "address",
          "name": "_candidateAddress",
          "type": "address"
        }
      ],
      "name": "putVote",
      "outputs": [],
      "stateMutability": "nonpayable",
      "type": "function"
    },
    {
      "inputs": [],
      "name": "stopVoting",
      "outputs": [],
      "stateMutability": "nonpayable",
      "type": "function"
    },
    {
      "inputs": [],
      "name": "getAllCandidate",
      "outputs": [
        {
          "components": [
            {
              "internalType": "string",
              "name": "name",
              "type": "string"
            },
            {
              "internalType": "uint256",
              "name": "age",
              "type": "uint256"
            },
            {
              "internalType": "bool",
              "name": "registered",
              "type": "bool"
            },
            {
              "internalType": "address",
              "name": "candidateAddress",
              "type": "address"
            },
            {
              "internalType": "uint256",
              "name": "votes",
              "type": "uint256"
            }
          ],
          "internalType": "struct Voting.Candidate[]",
          "name": "list",
          "type": "tuple[]"
        }
      ],
      "stateMutability": "view",
      "type": "function",
      "constant": true
    },
    {
      "inputs": [],
      "name": "votingStatus",
      "outputs": [
        {
          "internalType": "bool",
          "name": "",
          "type": "bool"
        }
      ],
      "stateMutability": "view",
      "type": "function",
      "constant": true
    },
    {
      "inputs": [],
      "name": "getRegisteredVotersCount",
      "outputs": [
        {
          "internalType": "uint256",
          "name": "",
          "type": "uint256"
        }
      ],
      "stateMutability": "view",
      "type": "function",
      "constant": true
    },
    {
      "inputs": [],
      "name": "getVotedCount",
      "outputs": [
        {
          "internalType": "uint256",
          "name": "",
          "type": "uint256"
        }
      ],
      "stateMutability": "view",
      "type": "function",
      "constant": true
    },
    {
      "inputs": [],
      "name": "getWinner",
      "outputs": [
        {
          "components": [
            {
              "internalType": "string",
              "name": "name",
              "type": "string"
            },
            {
              "internalType": "uint256",
              "name": "age",
              "type": "uint256"
            },
            {
              "internalType": "bool",
              "name": "registered",
              "type": "bool"
            },
            {
              "internalType": "address",
              "name": "candidateAddress",
              "type": "address"
            },
            {
              "internalType": "uint256",
              "name": "votes",
              "type": "uint256"
            }
          ],
          "internalType": "struct Voting.Candidate",
          "name": "candidate",
          "type": "tuple"
        }
      ],
      "stateMutability": "view",
      "type": "function",
      "constant": true
    }
  ],
  "bytecode": "0x60806040523480156200001157600080fd5b5060405162002a6738038062002a67833981810160405281019062000037919062000317565b336000806101000a81548173ffffffffffffffffffffffffffffffffffffffff021916908373ffffffffffffffffffffffffffffffffffffffff16021790555080600290805190602001906200008f929190620000ca565b506000600381905550600060068190555060006005819055506000600460006101000a81548160ff02191690831515021790555050620003cc565b828054620000d89062000397565b90600052602060002090601f016020900481019282620000fc576000855562000148565b82601f106200011757805160ff191683800117855562000148565b8280016001018555821562000148579182015b82811115620001475782518255916020019190600101906200012a565b5b5090506200015791906200015b565b5090565b5b80821115620001765760008160009055506001016200015c565b5090565b6000604051905090565b600080fd5b600080fd5b600080fd5b600080fd5b6000601f19601f8301169050919050565b7f4e487b7100000000000000000000000000000000000000000000000000000000600052604160045260246000fd5b620001e38262000198565b810181811067ffffffffffffffff82111715620002055762000204620001a9565b5b80604052505050565b60006200021a6200017a565b9050620002288282620001d8565b919050565b600067ffffffffffffffff8211156200024b576200024a620001a9565b5b620002568262000198565b9050602081019050919050565b60005b838110156200028357808201518184015260208101905062000266565b8381111562000293576000848401525b50505050565b6000620002b0620002aa846200022d565b6200020e565b905082815260208101848484011115620002cf57620002ce62000193565b5b620002dc84828562000263565b509392505050565b600082601f830112620002fc57620002fb6200018e565b5b81516200030e84826020860162000299565b91505092915050565b60006020828403121562000330576200032f62000184565b5b600082015167ffffffffffffffff81111562000351576200035062000189565b5b6200035f84828501620002e4565b91505092915050565b7f4e487b7100000000000000000000000000000000000000000000000000000000600052602260045260246000fd5b60006002820490506001821680620003b057607f821691505b602082108103620003c657620003c562000368565b5b50919050565b61268b80620003dc6000396000f3fe608060405234801561001057600080fd5b50600436106101205760003560e01c80638ab66a90116100ad578063cf52a7b211610071578063cf52a7b2146102ec578063ed7a4e0b14610308578063efd5297c14610326578063f1cea4c714610344578063fab2f86b1461036257610120565b80638ab66a901461022e5780638da5cb5b1461025e5780638e7ea5b21461027c578063a91081a11461029a578063b13c744b146102b857610120565b80633c71a6d5116100f45780633c71a6d51461019c5780635f5300ff146101b8578063648d2af5146101d65780638043c9c0146101f457806388fb6f741461021257610120565b8062aa74641461012557806303b4caed1461014357806319f41a40146101745780631ec6b60a14610192575b600080fd5b61012d61036c565b60405161013a91906116f3565b60405180910390f35b61015d60048036038101906101589190611780565b610372565b60405161016b9291906117c8565b60405180910390f35b61017c6103b0565b60405161018991906117f1565b60405180910390f35b61019a6103c7565b005b6101b660048036038101906101b1919061197e565b6104a7565b005b6101c0610800565b6040516101cd91906116f3565b60405180910390f35b6101de610806565b6040516101eb91906116f3565b60405180910390f35b6101fc610810565b6040516102099190611a75565b60405180910390f35b61022c60048036038101906102279190611780565b61089e565b005b61024860048036038101906102439190611780565b610d48565b60405161025591906116f3565b60405180910390f35b610266610d60565b6040516102739190611aa6565b60405180910390f35b610284610d84565b6040516102919190611bae565b60405180910390f35b6102a2610fc4565b6040516102af91906116f3565b60405180910390f35b6102d260048036038101906102cd9190611bd0565b610fce565b6040516102e3959493929190611bfd565b60405180910390f35b61030660048036038101906103019190611780565b6110c9565b005b61031061136e565b60405161031d9190611aa6565b60405180910390f35b61032e611394565b60405161033b9190611d8f565b60405180910390f35b61034c61150a565b60405161035991906116f3565b60405180910390f35b61036a611510565b005b60065481565b60096020528060005260406000206000915090508060000160009054906101000a900460ff16908060000160019054906101000a900460ff16905082565b6000600460009054906101000a900460ff16905090565b60008054906101000a900473ffffffffffffffffffffffffffffffffffffffff1673ffffffffffffffffffffffffffffffffffffffff163373ffffffffffffffffffffffffffffffffffffffff1614610455576040517f08c379a000000000000000000000000000000000000000000000000000000000815260040161044c90611dfd565b60405180910390fd5b6001600460006101000a81548160ff0219169083151502179055507f68f068b2f0d02fca99bc8285b62fce8668fe16b7c6a810351ea25bff358c0dd860405161049d90611e69565b60405180910390a1565b60008054906101000a900473ffffffffffffffffffffffffffffffffffffffff1673ffffffffffffffffffffffffffffffffffffffff163373ffffffffffffffffffffffffffffffffffffffff1614610535576040517f08c379a000000000000000000000000000000000000000000000000000000000815260040161052c90611efb565b60405180910390fd5b60008054906101000a900473ffffffffffffffffffffffffffffffffffffffff1673ffffffffffffffffffffffffffffffffffffffff168173ffffffffffffffffffffffffffffffffffffffff16036105c3576040517f08c379a00000000000000000000000000000000000000000000000000000000081526004016105ba90611f67565b60405180910390fd5b6000600760008373ffffffffffffffffffffffffffffffffffffffff1673ffffffffffffffffffffffffffffffffffffffff1681526020019081526020016000205414610645576040517f08c379a000000000000000000000000000000000000000000000000000000000815260040161063c90611fd3565b60405180910390fd5b60006040518060a001604052808581526020018481526020016001151581526020018373ffffffffffffffffffffffffffffffffffffffff168152602001600081525090506000600880549050036106b6576008600181600181540180825580915050039060005260206000209050505b600880549050600760008473ffffffffffffffffffffffffffffffffffffffff1673ffffffffffffffffffffffffffffffffffffffff16815260200190815260200160002081905550600881908060018154018082558091505060019003906000526020600020906004020160009091909190915060008201518160000190805190602001906107479291906115f0565b506020820151816001015560408201518160020160006101000a81548160ff02191690831515021790555060608201518160020160016101000a81548173ffffffffffffffffffffffffffffffffffffffff021916908373ffffffffffffffffffffffffffffffffffffffff1602179055506080820151816003015550507f68f068b2f0d02fca99bc8285b62fce8668fe16b7c6a810351ea25bff358c0dd86040516107f29061203f565b60405180910390a150505050565b60055481565b6000600554905090565b6002805461081d9061208e565b80601f01602080910402602001604051908101604052809291908181526020018280546108499061208e565b80156108965780601f1061086b57610100808354040283529160200191610896565b820191906000526020600020905b81548152906001019060200180831161087957829003601f168201915b505050505081565b60011515600460009054906101000a900460ff161515146108f4576040517f08c379a00000000000000000000000000000000000000000000000000000000081526004016108eb90612131565b60405180910390fd5b60008054906101000a900473ffffffffffffffffffffffffffffffffffffffff1673ffffffffffffffffffffffffffffffffffffffff163373ffffffffffffffffffffffffffffffffffffffff1603610982576040517f08c379a00000000000000000000000000000000000000000000000000000000081526004016109799061219d565b60405180910390fd5b60011515600960003373ffffffffffffffffffffffffffffffffffffffff1673ffffffffffffffffffffffffffffffffffffffff16815260200190815260200160002060000160009054906101000a900460ff16151514610a18576040517f08c379a0000000000000000000000000000000000000000000000000000000008152600401610a0f90612209565b60405180910390fd5b60001515600960003373ffffffffffffffffffffffffffffffffffffffff1673ffffffffffffffffffffffffffffffffffffffff16815260200190815260200160002060000160019054906101000a900460ff16151514610aae576040517f08c379a0000000000000000000000000000000000000000000000000000000008152600401610aa590612275565b60405180910390fd5b600115156008600760008473ffffffffffffffffffffffffffffffffffffffff1673ffffffffffffffffffffffffffffffffffffffff1681526020019081526020016000205481548110610b0557610b04612295565b5b906000526020600020906004020160020160009054906101000a900460ff16151514610b66576040517f08c379a0000000000000000000000000000000000000000000000000000000008152600401610b5d90612310565b60405180910390fd5b6008600760008373ffffffffffffffffffffffffffffffffffffffff1673ffffffffffffffffffffffffffffffffffffffff1681526020019081526020016000205481548110610bb957610bb8612295565b5b90600052602060002090600402016003016000815480929190610bdb9061235f565b91905055506001600960003373ffffffffffffffffffffffffffffffffffffffff1673ffffffffffffffffffffffffffffffffffffffff16815260200190815260200160002060000160016101000a81548160ff02191690831515021790555060056000815480929190610c4e9061235f565b919050555060006008600760008473ffffffffffffffffffffffffffffffffffffffff1673ffffffffffffffffffffffffffffffffffffffff1681526020019081526020016000205481548110610ca857610ca7612295565b5b9060005260206000209060040201600301549050806003541015610d0f578060038190555081600160006101000a81548173ffffffffffffffffffffffffffffffffffffffff021916908373ffffffffffffffffffffffffffffffffffffffff1602179055505b7f68f068b2f0d02fca99bc8285b62fce8668fe16b7c6a810351ea25bff358c0dd8604051610d3c906123f3565b60405180910390a15050565b60076020528060005260406000206000915090505481565b60008054906101000a900473ffffffffffffffffffffffffffffffffffffffff1681565b610d8c611676565b60008054906101000a900473ffffffffffffffffffffffffffffffffffffffff1673ffffffffffffffffffffffffffffffffffffffff163373ffffffffffffffffffffffffffffffffffffffff1614610e1a576040517f08c379a0000000000000000000000000000000000000000000000000000000008152600401610e119061245f565b60405180910390fd5b600860076000600160009054906101000a900473ffffffffffffffffffffffffffffffffffffffff1673ffffffffffffffffffffffffffffffffffffffff1673ffffffffffffffffffffffffffffffffffffffff1681526020019081526020016000205481548110610e8f57610e8e612295565b5b90600052602060002090600402016040518060a0016040529081600082018054610eb89061208e565b80601f0160208091040260200160405190810160405280929190818152602001828054610ee49061208e565b8015610f315780601f10610f0657610100808354040283529160200191610f31565b820191906000526020600020905b815481529060010190602001808311610f1457829003601f168201915b50505050508152602001600182015481526020016002820160009054906101000a900460ff161515151581526020016002820160019054906101000a900473ffffffffffffffffffffffffffffffffffffffff1673ffffffffffffffffffffffffffffffffffffffff1673ffffffffffffffffffffffffffffffffffffffff168152602001600382015481525050905090565b6000600654905090565b60088181548110610fde57600080fd5b90600052602060002090600402016000915090508060000180546110019061208e565b80601f016020809104026020016040519081016040528092919081815260200182805461102d9061208e565b801561107a5780601f1061104f5761010080835404028352916020019161107a565b820191906000526020600020905b81548152906001019060200180831161105d57829003601f168201915b5050505050908060010154908060020160009054906101000a900460ff16908060020160019054906101000a900473ffffffffffffffffffffffffffffffffffffffff16908060030154905085565b60008054906101000a900473ffffffffffffffffffffffffffffffffffffffff1673ffffffffffffffffffffffffffffffffffffffff168173ffffffffffffffffffffffffffffffffffffffff1603611157576040517f08c379a000000000000000000000000000000000000000000000000000000000815260040161114e9061219d565b60405180910390fd5b60008054906101000a900473ffffffffffffffffffffffffffffffffffffffff1673ffffffffffffffffffffffffffffffffffffffff163373ffffffffffffffffffffffffffffffffffffffff16146111e5576040517f08c379a00000000000000000000000000000000000000000000000000000000081526004016111dc906124f1565b60405180910390fd5b60001515600960008373ffffffffffffffffffffffffffffffffffffffff1673ffffffffffffffffffffffffffffffffffffffff16815260200190815260200160002060000160009054906101000a900460ff1615151461127b576040517f08c379a00000000000000000000000000000000000000000000000000000000081526004016112729061255d565b60405180910390fd5b60006040518060400160405280600115158152602001600015158152509050600660008154809291906112ad9061235f565b919050555080600960008473ffffffffffffffffffffffffffffffffffffffff1673ffffffffffffffffffffffffffffffffffffffff16815260200190815260200160002060008201518160000160006101000a81548160ff02191690831515021790555060208201518160000160016101000a81548160ff0219169083151502179055509050507f68f068b2f0d02fca99bc8285b62fce8668fe16b7c6a810351ea25bff358c0dd8604051611362906125c9565b60405180910390a15050565b600160009054906101000a900473ffffffffffffffffffffffffffffffffffffffff1681565b60606008805480602002602001604051908101604052809291908181526020016000905b8282101561150157838290600052602060002090600402016040518060a00160405290816000820180546113eb9061208e565b80601f01602080910402602001604051908101604052809291908181526020018280546114179061208e565b80156114645780601f1061143957610100808354040283529160200191611464565b820191906000526020600020905b81548152906001019060200180831161144757829003601f168201915b50505050508152602001600182015481526020016002820160009054906101000a900460ff161515151581526020016002820160019054906101000a900473ffffffffffffffffffffffffffffffffffffffff1673ffffffffffffffffffffffffffffffffffffffff1673ffffffffffffffffffffffffffffffffffffffff168152602001600382015481525050815260200190600101906113b8565b50505050905090565b60035481565b60008054906101000a900473ffffffffffffffffffffffffffffffffffffffff1673ffffffffffffffffffffffffffffffffffffffff163373ffffffffffffffffffffffffffffffffffffffff161461159e576040517f08c379a000000000000000000000000000000000000000000000000000000000815260040161159590611dfd565b60405180910390fd5b6000600460006101000a81548160ff0219169083151502179055507f68f068b2f0d02fca99bc8285b62fce8668fe16b7c6a810351ea25bff358c0dd86040516115e690612635565b60405180910390a1565b8280546115fc9061208e565b90600052602060002090601f01602090048101928261161e5760008555611665565b82601f1061163757805160ff1916838001178555611665565b82800160010185558215611665579182015b82811115611664578251825591602001919060010190611649565b5b50905061167291906116bd565b5090565b6040518060a001604052806060815260200160008152602001600015158152602001600073ffffffffffffffffffffffffffffffffffffffff168152602001600081525090565b5b808211156116d65760008160009055506001016116be565b5090565b6000819050919050565b6116ed816116da565b82525050565b600060208201905061170860008301846116e4565b92915050565b6000604051905090565b600080fd5b600080fd5b600073ffffffffffffffffffffffffffffffffffffffff82169050919050565b600061174d82611722565b9050919050565b61175d81611742565b811461176857600080fd5b50565b60008135905061177a81611754565b92915050565b60006020828403121561179657611795611718565b5b60006117a48482850161176b565b91505092915050565b60008115159050919050565b6117c2816117ad565b82525050565b60006040820190506117dd60008301856117b9565b6117ea60208301846117b9565b9392505050565b600060208201905061180660008301846117b9565b92915050565b600080fd5b600080fd5b6000601f19601f8301169050919050565b7f4e487b7100000000000000000000000000000000000000000000000000000000600052604160045260246000fd5b61185f82611816565b810181811067ffffffffffffffff8211171561187e5761187d611827565b5b80604052505050565b600061189161170e565b905061189d8282611856565b919050565b600067ffffffffffffffff8211156118bd576118bc611827565b5b6118c682611816565b9050602081019050919050565b82818337600083830152505050565b60006118f56118f0846118a2565b611887565b90508281526020810184848401111561191157611910611811565b5b61191c8482856118d3565b509392505050565b600082601f8301126119395761193861180c565b5b81356119498482602086016118e2565b91505092915050565b61195b816116da565b811461196657600080fd5b50565b60008135905061197881611952565b92915050565b60008060006060848603121561199757611996611718565b5b600084013567ffffffffffffffff8111156119b5576119b461171d565b5b6119c186828701611924565b93505060206119d286828701611969565b92505060406119e38682870161176b565b9150509250925092565b600081519050919050565b600082825260208201905092915050565b60005b83811015611a27578082015181840152602081019050611a0c565b83811115611a36576000848401525b50505050565b6000611a47826119ed565b611a5181856119f8565b9350611a61818560208601611a09565b611a6a81611816565b840191505092915050565b60006020820190508181036000830152611a8f8184611a3c565b905092915050565b611aa081611742565b82525050565b6000602082019050611abb6000830184611a97565b92915050565b600082825260208201905092915050565b6000611add826119ed565b611ae78185611ac1565b9350611af7818560208601611a09565b611b0081611816565b840191505092915050565b611b14816116da565b82525050565b611b23816117ad565b82525050565b611b3281611742565b82525050565b600060a0830160008301518482036000860152611b558282611ad2565b9150506020830151611b6a6020860182611b0b565b506040830151611b7d6040860182611b1a565b506060830151611b906060860182611b29565b506080830151611ba36080860182611b0b565b508091505092915050565b60006020820190508181036000830152611bc88184611b38565b905092915050565b600060208284031215611be657611be5611718565b5b6000611bf484828501611969565b91505092915050565b600060a0820190508181036000830152611c178188611a3c565b9050611c2660208301876116e4565b611c3360408301866117b9565b611c406060830185611a97565b611c4d60808301846116e4565b9695505050505050565b600081519050919050565b600082825260208201905092915050565b6000819050602082019050919050565b600060a0830160008301518482036000860152611ca08282611ad2565b9150506020830151611cb56020860182611b0b565b506040830151611cc86040860182611b1a565b506060830151611cdb6060860182611b29565b506080830151611cee6080860182611b0b565b508091505092915050565b6000611d058383611c83565b905092915050565b6000602082019050919050565b6000611d2582611c57565b611d2f8185611c62565b935083602082028501611d4185611c73565b8060005b85811015611d7d5784840389528151611d5e8582611cf9565b9450611d6983611d0d565b925060208a01995050600181019050611d45565b50829750879550505050505092915050565b60006020820190508181036000830152611da98184611d1a565b905092915050565b7f4f6e6c79206f776e65722063616e20737461727420766f74696e672121000000600082015250565b6000611de7601d836119f8565b9150611df282611db1565b602082019050919050565b60006020820190508181036000830152611e1681611dda565b9050919050565b7f566f74696e672053746172746564212100000000000000000000000000000000600082015250565b6000611e536010836119f8565b9150611e5e82611e1d565b602082019050919050565b60006020820190508181036000830152611e8281611e46565b9050919050565b7f4f6e6c79206f776e65722063616e2072656769737465722043616e646964617460008201527f6521210000000000000000000000000000000000000000000000000000000000602082015250565b6000611ee56023836119f8565b9150611ef082611e89565b604082019050919050565b60006020820190508181036000830152611f1481611ed8565b9050919050565b7f4f776e65722063616e206e6f7420706172746963697061746521210000000000600082015250565b6000611f51601b836119f8565b9150611f5c82611f1b565b602082019050919050565b60006020820190508181036000830152611f8081611f44565b9050919050565b7f43616e64696461746520616c7265616479207265676973746572656400000000600082015250565b6000611fbd601c836119f8565b9150611fc882611f87565b602082019050919050565b60006020820190508181036000830152611fec81611fb0565b9050919050565b7f43616e6469646174652072656769737465726564212100000000000000000000600082015250565b60006120296016836119f8565b915061203482611ff3565b602082019050919050565b600060208201905081810360008301526120588161201c565b9050919050565b7f4e487b7100000000000000000000000000000000000000000000000000000000600052602260045260246000fd5b600060028204905060018216806120a657607f821691505b6020821081036120b9576120b861205f565b5b50919050565b7f566f74696e67206e6f74207374617274656420796574206f7220656e6465642160008201527f2100000000000000000000000000000000000000000000000000000000000000602082015250565b600061211b6021836119f8565b9150612126826120bf565b604082019050919050565b6000602082019050818103600083015261214a8161210e565b9050919050565b7f4f776e65722063616e206e6f7420766f74652121000000000000000000000000600082015250565b60006121876014836119f8565b915061219282612151565b602082019050919050565b600060208201905081810360008301526121b68161217a565b9050919050565b7f566f746572206e6f742072656769737465726564212100000000000000000000600082015250565b60006121f36016836119f8565b91506121fe826121bd565b602082019050919050565b60006020820190508181036000830152612222816121e6565b9050919050565b7f416c726561647920766f74656421210000000000000000000000000000000000600082015250565b600061225f600f836119f8565b915061226a82612229565b602082019050919050565b6000602082019050818103600083015261228e81612252565b9050919050565b7f4e487b7100000000000000000000000000000000000000000000000000000000600052603260045260246000fd5b7f43616e646964617465206e6f7420726567697374657265640000000000000000600082015250565b60006122fa6018836119f8565b9150612305826122c4565b602082019050919050565b60006020820190508181036000830152612329816122ed565b9050919050565b7f4e487b7100000000000000000000000000000000000000000000000000000000600052601160045260246000fd5b600061236a826116da565b91507fffffffffffffffffffffffffffffffffffffffffffffffffffffffffffffffff820361239c5761239b612330565b5b600182019050919050565b7f566f746564202121000000000000000000000000000000000000000000000000600082015250565b60006123dd6008836119f8565b91506123e8826123a7565b602082019050919050565b6000602082019050818103600083015261240c816123d0565b9050919050565b7f4f6e6c79206f776e65722063616e206465636c6172652077696e6e6572212100600082015250565b6000612449601f836119f8565b915061245482612413565b602082019050919050565b600060208201905081810360008301526124788161243c565b9050919050565b7f4f6e6c79206f776e65722063616e2077686974656c697374207468652061646460008201527f7265737365732121000000000000000000000000000000000000000000000000602082015250565b60006124db6028836119f8565b91506124e68261247f565b604082019050919050565b6000602082019050818103600083015261250a816124ce565b9050919050565b7f566f74657220616c726561647920726567697374657265642121000000000000600082015250565b6000612547601a836119f8565b915061255282612511565b602082019050919050565b600060208201905081810360008301526125768161253a565b9050919050565b7f566f746572207265676973746572656421210000000000000000000000000000600082015250565b60006125b36012836119f8565b91506125be8261257d565b602082019050919050565b600060208201905081810360008301526125e2816125a6565b9050919050565b7f566f74696e672073746f70656421210000000000000000000000000000000000600082015250565b600061261f600f836119f8565b915061262a826125e9565b602082019050919050565b6000602082019050818103600083015261264e81612612565b905091905056fea2646970667358221220722a5026016373fe777b58a9ad0699fde59f68b3c0aebb842b94706b38e3f64164736f6c634300080d0033",
  "immutableReferences": {},
  "source": "// SPDX-License-Identifier: GPL-3.0\n\npragma solidity ^0.8.13;\n\ncontract Voting {\n    address public owner;\n    address public winnerAddress;\n    string public eventName;\n    uint public totalVote;\n    bool votingStarted;\n    uint public totalVoters;\n    uint public totalRegisteredVoters;\n    struct Candidate {\n        string name;\n        uint age;\n        bool registered;\n        address candidateAddress;\n        uint votes;\n    }\n\n    struct Voter {\n        bool registered;\n        bool voted;\n    }\n\n    event success(string msg);\n    mapping(address => uint) public candidates;\n    Candidate[] public candidateList;\n    mapping(address => Voter) public voterList;\n\n    constructor(string memory _eventName) {\n        owner = msg.sender;\n        eventName = _eventName;\n        totalVote = 0;\n        totalRegisteredVoters=0;\n        totalVoters=0;\n        votingStarted = false;\n    }\n\n    function registerCandidates(\n        string memory _name,\n        uint _age,\n        address _candidateAddress\n    ) external {\n        require(msg.sender == owner, \"Only owner can register Candidate!!\");\n        require(_candidateAddress != owner, \"Owner can not participate!!\");\n        require(\n            candidates[_candidateAddress] == 0,\n            \"Candidate already registered\"\n        );\n        Candidate memory candidate = Candidate({\n            name: _name,\n            age: _age,\n            registered: true,\n            votes: 0,\n            candidateAddress: _candidateAddress\n        });\n        if (candidateList.length == 0) {\n            //not pushing any candidate on location zero;\n            candidateList.push();\n        }\n        candidates[_candidateAddress] = candidateList.length;\n        candidateList.push(candidate);\n        emit success(\"Candidate registered!!\");\n    }\n\n    function whiteListAddress(address _voterAddress) external {\n        require(_voterAddress != owner, \"Owner can not vote!!\");\n        require(\n            msg.sender == owner,\n            \"Only owner can whitelist the addresses!!\"\n        );\n        require(\n            voterList[_voterAddress].registered == false,\n            \"Voter already registered!!\"\n        );\n        Voter memory voter = Voter({registered: true, voted: false});\n        totalRegisteredVoters++;\n        voterList[_voterAddress] = voter;\n        emit success(\"Voter registered!!\");\n    }\n\n    function startVoting() external {\n        require(msg.sender == owner, \"Only owner can start voting!!\");\n        votingStarted = true;\n        emit success(\"Voting Started!!\");\n    }\n\n    function putVote(address _candidateAddress) external {\n        require(votingStarted == true, \"Voting not started yet or ended!!\");\n        require(msg.sender != owner, \"Owner can not vote!!\");\n        require(\n            voterList[msg.sender].registered == true,\n            \"Voter not registered!!\"\n        );\n        require(voterList[msg.sender].voted == false, \"Already voted!!\");\n        require(\n            candidateList[candidates[_candidateAddress]].registered == true,\n            \"Candidate not registered\"\n        );\n\n        candidateList[candidates[_candidateAddress]].votes++;\n        voterList[msg.sender].voted = true;\n        totalVoters++;\n        uint candidateVotes = candidateList[candidates[_candidateAddress]]\n            .votes;\n\n        if (totalVote < candidateVotes) {\n            totalVote = candidateVotes;\n            winnerAddress = _candidateAddress;\n        }\n        emit success(\"Voted !!\");\n    }\n\n    function stopVoting() external {\n        require(msg.sender == owner, \"Only owner can start voting!!\");\n        votingStarted = false;\n        emit success(\"Voting stoped!!\");\n    }\n\n    function getAllCandidate() external view returns (Candidate[] memory list) {\n        return candidateList;\n    }\n\n    function votingStatus() external view returns (bool) {\n        return votingStarted;\n    }\n\n    function getRegisteredVotersCount() external view returns (uint) {\n        return totalRegisteredVoters;\n    }\n\n    function getVotedCount() external view returns (uint) {\n        return totalVoters;\n    }\n\n    function getWinner() public view returns (Candidate memory candidate) {\n        require(msg.sender == owner, \"Only owner can declare winner!!\");\n        return candidateList[candidates[winnerAddress]];\n    }\n}\n",
  "sourcePath": "/run/media/athul/Programing/blockvote/contracts/contracts/Voting.sol",
  "compiler": {
    "name": "solc",
    "version": "0.8.13+commit.abaa5c0e.Emscripten.clang"
  },
  "schemaVersion": "3.4.16",
  "updatedAt": "2024-02-12T04:27:16.783Z",
  "networkType": "ethereum",
  "devdoc": {
    "kind": "dev",
    "methods": {},
    "version": 1
  },
  "userdoc": {
    "kind": "user",
    "methods": {},
    "version": 1
  }
}