{
  "contractName": "Voting",
  "abi": [
    {
      "inputs": [
        {
          "internalType": "string",
          "name": "_eventName",
          "type": "string"
        }
      ],
      "stateMutability": "nonpayable",
      "type": "constructor"
    },
    {
      "anonymous": false,
      "inputs": [
        {
          "indexed": false,
          "internalType": "string",
          "name": "msg",
          "type": "string"
        }
      ],
      "name": "success",
      "type": "event"
    },
    {
      "inputs": [
        {
          "internalType": "uint256",
          "name": "",
          "type": "uint256"
        }
      ],
      "name": "candidateList",
      "outputs": [
        {
          "internalType": "string",
          "name": "name",
          "type": "string"
        },
        {
          "internalType": "uint256",
          "name": "age",
          "type": "uint256"
        },
        {
          "internalType": "bool",
          "name": "registered",
          "type": "bool"
        },
        {
          "internalType": "address",
          "name": "candidateAddress",
          "type": "address"
        },
        {
          "internalType": "uint256",
          "name": "votes",
          "type": "uint256"
        }
      ],
      "stateMutability": "view",
      "type": "function",
      "constant": true
    },
    {
      "inputs": [
        {
          "internalType": "address",
          "name": "",
          "type": "address"
        }
      ],
      "name": "candidates",
      "outputs": [
        {
          "internalType": "uint256",
          "name": "",
          "type": "uint256"
        }
      ],
      "stateMutability": "view",
      "type": "function",
      "constant": true
    },
    {
      "inputs": [],
      "name": "eventName",
      "outputs": [
        {
          "internalType": "string",
          "name": "",
          "type": "string"
        }
      ],
      "stateMutability": "view",
      "type": "function",
      "constant": true
    },
    {
      "inputs": [],
      "name": "owner",
      "outputs": [
        {
          "internalType": "address",
          "name": "",
          "type": "address"
        }
      ],
      "stateMutability": "view",
      "type": "function",
      "constant": true
    },
    {
      "inputs": [],
      "name": "totalRegisteredVoters",
      "outputs": [
        {
          "internalType": "uint256",
          "name": "",
          "type": "uint256"
        }
      ],
      "stateMutability": "view",
      "type": "function",
      "constant": true
    },
    {
      "inputs": [],
      "name": "totalVote",
      "outputs": [
        {
          "internalType": "uint256",
          "name": "",
          "type": "uint256"
        }
      ],
      "stateMutability": "view",
      "type": "function",
      "constant": true
    },
    {
      "inputs": [],
      "name": "totalVoters",
      "outputs": [
        {
          "internalType": "uint256",
          "name": "",
          "type": "uint256"
        }
      ],
      "stateMutability": "view",
      "type": "function",
      "constant": true
    },
    {
      "inputs": [
        {
          "internalType": "address",
          "name": "",
          "type": "address"
        }
      ],
      "name": "voterList",
      "outputs": [
        {
          "internalType": "bool",
          "name": "registered",
          "type": "bool"
        },
        {
          "internalType": "bool",
          "name": "voted",
          "type": "bool"
        }
      ],
      "stateMutability": "view",
      "type": "function",
      "constant": true
    },
    {
      "inputs": [],
      "name": "winnerAddress",
      "outputs": [
        {
          "internalType": "address",
          "name": "",
          "type": "address"
        }
      ],
      "stateMutability": "view",
      "type": "function",
      "constant": true
    },
    {
      "inputs": [
        {
          "internalType": "uint256",
          "name": "",
          "type": "uint256"
        }
      ],
      "name": "winnerList",
      "outputs": [
        {
          "internalType": "string",
          "name": "name",
          "type": "string"
        },
        {
          "internalType": "uint256",
          "name": "age",
          "type": "uint256"
        },
        {
          "internalType": "bool",
          "name": "registered",
          "type": "bool"
        },
        {
          "internalType": "address",
          "name": "candidateAddress",
          "type": "address"
        },
        {
          "internalType": "uint256",
          "name": "votes",
          "type": "uint256"
        }
      ],
      "stateMutability": "view",
      "type": "function",
      "constant": true
    },
    {
      "inputs": [
        {
          "internalType": "string",
          "name": "_name",
          "type": "string"
        },
        {
          "internalType": "uint256",
          "name": "_age",
          "type": "uint256"
        },
        {
          "internalType": "address",
          "name": "_candidateAddress",
          "type": "address"
        }
      ],
      "name": "registerCandidates",
      "outputs": [],
      "stateMutability": "nonpayable",
      "type": "function"
    },
    {
      "inputs": [
        {
          "internalType": "address",
          "name": "_voterAddress",
          "type": "address"
        }
      ],
      "name": "whiteListAddress",
      "outputs": [],
      "stateMutability": "nonpayable",
      "type": "function"
    },
    {
      "inputs": [],
      "name": "startVoting",
      "outputs": [],
      "stateMutability": "nonpayable",
      "type": "function"
    },
    {
      "inputs": [
        {
          "internalType": "address",
          "name": "_candidateAddress",
          "type": "address"
        }
      ],
      "name": "putVote",
      "outputs": [],
      "stateMutability": "nonpayable",
      "type": "function"
    },
    {
      "inputs": [],
      "name": "stopVoting",
      "outputs": [],
      "stateMutability": "nonpayable",
      "type": "function"
    },
    {
      "inputs": [],
      "name": "getAllCandidate",
      "outputs": [
        {
          "components": [
            {
              "internalType": "string",
              "name": "name",
              "type": "string"
            },
            {
              "internalType": "uint256",
              "name": "age",
              "type": "uint256"
            },
            {
              "internalType": "bool",
              "name": "registered",
              "type": "bool"
            },
            {
              "internalType": "address",
              "name": "candidateAddress",
              "type": "address"
            },
            {
              "internalType": "uint256",
              "name": "votes",
              "type": "uint256"
            }
          ],
          "internalType": "struct Voting.Candidate[]",
          "name": "list",
          "type": "tuple[]"
        }
      ],
      "stateMutability": "view",
      "type": "function",
      "constant": true
    },
    {
      "inputs": [],
      "name": "votingStatus",
      "outputs": [
        {
          "internalType": "bool",
          "name": "",
          "type": "bool"
        }
      ],
      "stateMutability": "view",
      "type": "function",
      "constant": true
    },
    {
      "inputs": [],
      "name": "getRegisteredVotersCount",
      "outputs": [
        {
          "internalType": "uint256",
          "name": "",
          "type": "uint256"
        }
      ],
      "stateMutability": "view",
      "type": "function",
      "constant": true
    },
    {
      "inputs": [],
      "name": "getVotedCount",
      "outputs": [
        {
          "internalType": "uint256",
          "name": "",
          "type": "uint256"
        }
      ],
      "stateMutability": "view",
      "type": "function",
      "constant": true
    },
    {
      "inputs": [],
      "name": "getWinner",
      "outputs": [
        {
          "components": [
            {
              "internalType": "string",
              "name": "name",
              "type": "string"
            },
            {
              "internalType": "uint256",
              "name": "age",
              "type": "uint256"
            },
            {
              "internalType": "bool",
              "name": "registered",
              "type": "bool"
            },
            {
              "internalType": "address",
              "name": "candidateAddress",
              "type": "address"
            },
            {
              "internalType": "uint256",
              "name": "votes",
              "type": "uint256"
            }
          ],
          "internalType": "struct Voting.Candidate[]",
          "name": "",
          "type": "tuple[]"
        }
      ],
      "stateMutability": "nonpayable",
      "type": "function"
    }
  ],
  "bytecode": "0x60806040523480156200001157600080fd5b5060405162002c7b38038062002c7b833981810160405281019062000037919062000317565b336000806101000a81548173ffffffffffffffffffffffffffffffffffffffff021916908373ffffffffffffffffffffffffffffffffffffffff16021790555080600290805190602001906200008f929190620000ca565b506000600381905550600060068190555060006005819055506000600460006101000a81548160ff02191690831515021790555050620003cc565b828054620000d89062000397565b90600052602060002090601f016020900481019282620000fc576000855562000148565b82601f106200011757805160ff191683800117855562000148565b8280016001018555821562000148579182015b82811115620001475782518255916020019190600101906200012a565b5b5090506200015791906200015b565b5090565b5b80821115620001765760008160009055506001016200015c565b5090565b6000604051905090565b600080fd5b600080fd5b600080fd5b600080fd5b6000601f19601f8301169050919050565b7f4e487b7100000000000000000000000000000000000000000000000000000000600052604160045260246000fd5b620001e38262000198565b810181811067ffffffffffffffff82111715620002055762000204620001a9565b5b80604052505050565b60006200021a6200017a565b9050620002288282620001d8565b919050565b600067ffffffffffffffff8211156200024b576200024a620001a9565b5b620002568262000198565b9050602081019050919050565b60005b838110156200028357808201518184015260208101905062000266565b8381111562000293576000848401525b50505050565b6000620002b0620002aa846200022d565b6200020e565b905082815260208101848484011115620002cf57620002ce62000193565b5b620002dc84828562000263565b509392505050565b600082601f830112620002fc57620002fb6200018e565b5b81516200030e84826020860162000299565b91505092915050565b60006020828403121562000330576200032f62000184565b5b600082015167ffffffffffffffff81111562000351576200035062000189565b5b6200035f84828501620002e4565b91505092915050565b7f4e487b7100000000000000000000000000000000000000000000000000000000600052602260045260246000fd5b60006002820490506001821680620003b057607f821691505b602082108103620003c657620003c562000368565b5b50919050565b61289f80620003dc6000396000f3fe608060405234801561001057600080fd5b506004361061012b5760003560e01c80638ab66a90116100ad578063cf52a7b211610071578063cf52a7b21461032b578063ed7a4e0b14610347578063efd5297c14610365578063f1cea4c714610383578063fab2f86b146103a15761012b565b80638ab66a901461026d5780638da5cb5b1461029d5780638e7ea5b2146102bb578063a91081a1146102d9578063b13c744b146102f75761012b565b80635578027e116100f45780635578027e146101c35780635f5300ff146101f7578063648d2af5146102155780638043c9c01461023357806388fb6f74146102515761012b565b8062aa74641461013057806303b4caed1461014e57806319f41a401461017f5780631ec6b60a1461019d5780633c71a6d5146101a7575b600080fd5b6101386103ab565b604051610145919061199f565b60405180910390f35b61016860048036038101906101639190611a2c565b6103b1565b604051610176929190611a74565b60405180910390f35b6101876103ef565b6040516101949190611a9d565b60405180910390f35b6101a5610406565b005b6101c160048036038101906101bc9190611c2a565b6104e6565b005b6101dd60048036038101906101d89190611c99565b61083f565b6040516101ee959493929190611d5d565b60405180910390f35b6101ff61093a565b60405161020c919061199f565b60405180910390f35b61021d610940565b60405161022a919061199f565b60405180910390f35b61023b61094a565b6040516102489190611db7565b60405180910390f35b61026b60048036038101906102669190611a2c565b6109d8565b005b61028760048036038101906102829190611a2c565b610e82565b604051610294919061199f565b60405180910390f35b6102a5610e9a565b6040516102b29190611dd9565b60405180910390f35b6102c3610ebe565b6040516102d09190611fa3565b60405180910390f35b6102e161122a565b6040516102ee919061199f565b60405180910390f35b610311600480360381019061030c9190611c99565b611234565b604051610322959493929190611d5d565b60405180910390f35b61034560048036038101906103409190611a2c565b61132f565b005b61034f6115d4565b60405161035c9190611dd9565b60405180910390f35b61036d6115fa565b60405161037a9190611fa3565b60405180910390f35b61038b611770565b604051610398919061199f565b60405180910390f35b6103a9611776565b005b60065481565b600a6020528060005260406000206000915090508060000160009054906101000a900460ff16908060000160019054906101000a900460ff16905082565b6000600460009054906101000a900460ff16905090565b60008054906101000a900473ffffffffffffffffffffffffffffffffffffffff1673ffffffffffffffffffffffffffffffffffffffff163373ffffffffffffffffffffffffffffffffffffffff1614610494576040517f08c379a000000000000000000000000000000000000000000000000000000000815260040161048b90612011565b60405180910390fd5b6001600460006101000a81548160ff0219169083151502179055507f68f068b2f0d02fca99bc8285b62fce8668fe16b7c6a810351ea25bff358c0dd86040516104dc9061207d565b60405180910390a1565b60008054906101000a900473ffffffffffffffffffffffffffffffffffffffff1673ffffffffffffffffffffffffffffffffffffffff163373ffffffffffffffffffffffffffffffffffffffff1614610574576040517f08c379a000000000000000000000000000000000000000000000000000000000815260040161056b9061210f565b60405180910390fd5b60008054906101000a900473ffffffffffffffffffffffffffffffffffffffff1673ffffffffffffffffffffffffffffffffffffffff168173ffffffffffffffffffffffffffffffffffffffff1603610602576040517f08c379a00000000000000000000000000000000000000000000000000000000081526004016105f99061217b565b60405180910390fd5b6000600760008373ffffffffffffffffffffffffffffffffffffffff1673ffffffffffffffffffffffffffffffffffffffff1681526020019081526020016000205414610684576040517f08c379a000000000000000000000000000000000000000000000000000000000815260040161067b906121e7565b60405180910390fd5b60006040518060a001604052808581526020018481526020016001151581526020018373ffffffffffffffffffffffffffffffffffffffff168152602001600081525090506000600880549050036106f5576008600181600181540180825580915050039060005260206000209050505b600880549050600760008473ffffffffffffffffffffffffffffffffffffffff1673ffffffffffffffffffffffffffffffffffffffff1681526020019081526020016000208190555060088190806001815401808255809150506001900390600052602060002090600402016000909190919091506000820151816000019080519060200190610786929190611856565b506020820151816001015560408201518160020160006101000a81548160ff02191690831515021790555060608201518160020160016101000a81548173ffffffffffffffffffffffffffffffffffffffff021916908373ffffffffffffffffffffffffffffffffffffffff1602179055506080820151816003015550507f68f068b2f0d02fca99bc8285b62fce8668fe16b7c6a810351ea25bff358c0dd860405161083190612253565b60405180910390a150505050565b6009818154811061084f57600080fd5b9060005260206000209060040201600091509050806000018054610872906122a2565b80601f016020809104026020016040519081016040528092919081815260200182805461089e906122a2565b80156108eb5780601f106108c0576101008083540402835291602001916108eb565b820191906000526020600020905b8154815290600101906020018083116108ce57829003601f168201915b5050505050908060010154908060020160009054906101000a900460ff16908060020160019054906101000a900473ffffffffffffffffffffffffffffffffffffffff16908060030154905085565b60055481565b6000600554905090565b60028054610957906122a2565b80601f0160208091040260200160405190810160405280929190818152602001828054610983906122a2565b80156109d05780601f106109a5576101008083540402835291602001916109d0565b820191906000526020600020905b8154815290600101906020018083116109b357829003601f168201915b505050505081565b60011515600460009054906101000a900460ff16151514610a2e576040517f08c379a0000000000000000000000000000000000000000000000000000000008152600401610a2590612345565b60405180910390fd5b60008054906101000a900473ffffffffffffffffffffffffffffffffffffffff1673ffffffffffffffffffffffffffffffffffffffff163373ffffffffffffffffffffffffffffffffffffffff1603610abc576040517f08c379a0000000000000000000000000000000000000000000000000000000008152600401610ab3906123b1565b60405180910390fd5b60011515600a60003373ffffffffffffffffffffffffffffffffffffffff1673ffffffffffffffffffffffffffffffffffffffff16815260200190815260200160002060000160009054906101000a900460ff16151514610b52576040517f08c379a0000000000000000000000000000000000000000000000000000000008152600401610b499061241d565b60405180910390fd5b60001515600a60003373ffffffffffffffffffffffffffffffffffffffff1673ffffffffffffffffffffffffffffffffffffffff16815260200190815260200160002060000160019054906101000a900460ff16151514610be8576040517f08c379a0000000000000000000000000000000000000000000000000000000008152600401610bdf90612489565b60405180910390fd5b600115156008600760008473ffffffffffffffffffffffffffffffffffffffff1673ffffffffffffffffffffffffffffffffffffffff1681526020019081526020016000205481548110610c3f57610c3e6124a9565b5b906000526020600020906004020160020160009054906101000a900460ff16151514610ca0576040517f08c379a0000000000000000000000000000000000000000000000000000000008152600401610c9790612524565b60405180910390fd5b6008600760008373ffffffffffffffffffffffffffffffffffffffff1673ffffffffffffffffffffffffffffffffffffffff1681526020019081526020016000205481548110610cf357610cf26124a9565b5b90600052602060002090600402016003016000815480929190610d1590612573565b91905055506001600a60003373ffffffffffffffffffffffffffffffffffffffff1673ffffffffffffffffffffffffffffffffffffffff16815260200190815260200160002060000160016101000a81548160ff02191690831515021790555060056000815480929190610d8890612573565b919050555060006008600760008473ffffffffffffffffffffffffffffffffffffffff1673ffffffffffffffffffffffffffffffffffffffff1681526020019081526020016000205481548110610de257610de16124a9565b5b9060005260206000209060040201600301549050806003541015610e49578060038190555081600160006101000a81548173ffffffffffffffffffffffffffffffffffffffff021916908373ffffffffffffffffffffffffffffffffffffffff1602179055505b7f68f068b2f0d02fca99bc8285b62fce8668fe16b7c6a810351ea25bff358c0dd8604051610e7690612607565b60405180910390a15050565b60076020528060005260406000206000915090505481565b60008054906101000a900473ffffffffffffffffffffffffffffffffffffffff1681565b606060008054906101000a900473ffffffffffffffffffffffffffffffffffffffff1673ffffffffffffffffffffffffffffffffffffffff163373ffffffffffffffffffffffffffffffffffffffff1614610f4e576040517f08c379a0000000000000000000000000000000000000000000000000000000008152600401610f4590612673565b60405180910390fd5b60005b6008805490508110156110b55760035460088281548110610f7557610f746124a9565b5b906000526020600020906004020160030154036110a457600960088281548110610fa257610fa16124a9565b5b906000526020600020906004020190806001815401808255809150506001900390600052602060002090600402016000909190919091506000820181600001908054610fed906122a2565b610ff89291906118dc565b50600182015481600101556002820160009054906101000a900460ff168160020160006101000a81548160ff0219169083151502179055506002820160019054906101000a900473ffffffffffffffffffffffffffffffffffffffff168160020160016101000a81548173ffffffffffffffffffffffffffffffffffffffff021916908373ffffffffffffffffffffffffffffffffffffffff1602179055506003820154816003015550505b806110ae90612573565b9050610f51565b506009805480602002602001604051908101604052809291908181526020016000905b8282101561122157838290600052602060002090600402016040518060a001604052908160008201805461110b906122a2565b80601f0160208091040260200160405190810160405280929190818152602001828054611137906122a2565b80156111845780601f1061115957610100808354040283529160200191611184565b820191906000526020600020905b81548152906001019060200180831161116757829003601f168201915b50505050508152602001600182015481526020016002820160009054906101000a900460ff161515151581526020016002820160019054906101000a900473ffffffffffffffffffffffffffffffffffffffff1673ffffffffffffffffffffffffffffffffffffffff1673ffffffffffffffffffffffffffffffffffffffff168152602001600382015481525050815260200190600101906110d8565b50505050905090565b6000600654905090565b6008818154811061124457600080fd5b9060005260206000209060040201600091509050806000018054611267906122a2565b80601f0160208091040260200160405190810160405280929190818152602001828054611293906122a2565b80156112e05780601f106112b5576101008083540402835291602001916112e0565b820191906000526020600020905b8154815290600101906020018083116112c357829003601f168201915b5050505050908060010154908060020160009054906101000a900460ff16908060020160019054906101000a900473ffffffffffffffffffffffffffffffffffffffff16908060030154905085565b60008054906101000a900473ffffffffffffffffffffffffffffffffffffffff1673ffffffffffffffffffffffffffffffffffffffff168173ffffffffffffffffffffffffffffffffffffffff16036113bd576040517f08c379a00000000000000000000000000000000000000000000000000000000081526004016113b4906123b1565b60405180910390fd5b60008054906101000a900473ffffffffffffffffffffffffffffffffffffffff1673ffffffffffffffffffffffffffffffffffffffff163373ffffffffffffffffffffffffffffffffffffffff161461144b576040517f08c379a000000000000000000000000000000000000000000000000000000000815260040161144290612705565b60405180910390fd5b60001515600a60008373ffffffffffffffffffffffffffffffffffffffff1673ffffffffffffffffffffffffffffffffffffffff16815260200190815260200160002060000160009054906101000a900460ff161515146114e1576040517f08c379a00000000000000000000000000000000000000000000000000000000081526004016114d890612771565b60405180910390fd5b600060405180604001604052806001151581526020016000151581525090506006600081548092919061151390612573565b919050555080600a60008473ffffffffffffffffffffffffffffffffffffffff1673ffffffffffffffffffffffffffffffffffffffff16815260200190815260200160002060008201518160000160006101000a81548160ff02191690831515021790555060208201518160000160016101000a81548160ff0219169083151502179055509050507f68f068b2f0d02fca99bc8285b62fce8668fe16b7c6a810351ea25bff358c0dd86040516115c8906127dd565b60405180910390a15050565b600160009054906101000a900473ffffffffffffffffffffffffffffffffffffffff1681565b60606008805480602002602001604051908101604052809291908181526020016000905b8282101561176757838290600052602060002090600402016040518060a0016040529081600082018054611651906122a2565b80601f016020809104026020016040519081016040528092919081815260200182805461167d906122a2565b80156116ca5780601f1061169f576101008083540402835291602001916116ca565b820191906000526020600020905b8154815290600101906020018083116116ad57829003601f168201915b50505050508152602001600182015481526020016002820160009054906101000a900460ff161515151581526020016002820160019054906101000a900473ffffffffffffffffffffffffffffffffffffffff1673ffffffffffffffffffffffffffffffffffffffff1673ffffffffffffffffffffffffffffffffffffffff1681526020016003820154815250508152602001906001019061161e565b50505050905090565b60035481565b60008054906101000a900473ffffffffffffffffffffffffffffffffffffffff1673ffffffffffffffffffffffffffffffffffffffff163373ffffffffffffffffffffffffffffffffffffffff1614611804576040517f08c379a00000000000000000000000000000000000000000000000000000000081526004016117fb90612011565b60405180910390fd5b6000600460006101000a81548160ff0219169083151502179055507f68f068b2f0d02fca99bc8285b62fce8668fe16b7c6a810351ea25bff358c0dd860405161184c90612849565b60405180910390a1565b828054611862906122a2565b90600052602060002090601f01602090048101928261188457600085556118cb565b82601f1061189d57805160ff19168380011785556118cb565b828001600101855582156118cb579182015b828111156118ca5782518255916020019190600101906118af565b5b5090506118d89190611969565b5090565b8280546118e8906122a2565b90600052602060002090601f01602090048101928261190a5760008555611958565b82601f1061191b5780548555611958565b8280016001018555821561195857600052602060002091601f016020900482015b8281111561195757825482559160010191906001019061193c565b5b5090506119659190611969565b5090565b5b8082111561198257600081600090555060010161196a565b5090565b6000819050919050565b61199981611986565b82525050565b60006020820190506119b46000830184611990565b92915050565b6000604051905090565b600080fd5b600080fd5b600073ffffffffffffffffffffffffffffffffffffffff82169050919050565b60006119f9826119ce565b9050919050565b611a09816119ee565b8114611a1457600080fd5b50565b600081359050611a2681611a00565b92915050565b600060208284031215611a4257611a416119c4565b5b6000611a5084828501611a17565b91505092915050565b60008115159050919050565b611a6e81611a59565b82525050565b6000604082019050611a896000830185611a65565b611a966020830184611a65565b9392505050565b6000602082019050611ab26000830184611a65565b92915050565b600080fd5b600080fd5b6000601f19601f8301169050919050565b7f4e487b7100000000000000000000000000000000000000000000000000000000600052604160045260246000fd5b611b0b82611ac2565b810181811067ffffffffffffffff82111715611b2a57611b29611ad3565b5b80604052505050565b6000611b3d6119ba565b9050611b498282611b02565b919050565b600067ffffffffffffffff821115611b6957611b68611ad3565b5b611b7282611ac2565b9050602081019050919050565b82818337600083830152505050565b6000611ba1611b9c84611b4e565b611b33565b905082815260208101848484011115611bbd57611bbc611abd565b5b611bc8848285611b7f565b509392505050565b600082601f830112611be557611be4611ab8565b5b8135611bf5848260208601611b8e565b91505092915050565b611c0781611986565b8114611c1257600080fd5b50565b600081359050611c2481611bfe565b92915050565b600080600060608486031215611c4357611c426119c4565b5b600084013567ffffffffffffffff811115611c6157611c606119c9565b5b611c6d86828701611bd0565b9350506020611c7e86828701611c15565b9250506040611c8f86828701611a17565b9150509250925092565b600060208284031215611caf57611cae6119c4565b5b6000611cbd84828501611c15565b91505092915050565b600081519050919050565b600082825260208201905092915050565b60005b83811015611d00578082015181840152602081019050611ce5565b83811115611d0f576000848401525b50505050565b6000611d2082611cc6565b611d2a8185611cd1565b9350611d3a818560208601611ce2565b611d4381611ac2565b840191505092915050565b611d57816119ee565b82525050565b600060a0820190508181036000830152611d778188611d15565b9050611d866020830187611990565b611d936040830186611a65565b611da06060830185611d4e565b611dad6080830184611990565b9695505050505050565b60006020820190508181036000830152611dd18184611d15565b905092915050565b6000602082019050611dee6000830184611d4e565b92915050565b600081519050919050565b600082825260208201905092915050565b6000819050602082019050919050565b600082825260208201905092915050565b6000611e3c82611cc6565b611e468185611e20565b9350611e56818560208601611ce2565b611e5f81611ac2565b840191505092915050565b611e7381611986565b82525050565b611e8281611a59565b82525050565b611e91816119ee565b82525050565b600060a0830160008301518482036000860152611eb48282611e31565b9150506020830151611ec96020860182611e6a565b506040830151611edc6040860182611e79565b506060830151611eef6060860182611e88565b506080830151611f026080860182611e6a565b508091505092915050565b6000611f198383611e97565b905092915050565b6000602082019050919050565b6000611f3982611df4565b611f438185611dff565b935083602082028501611f5585611e10565b8060005b85811015611f915784840389528151611f728582611f0d565b9450611f7d83611f21565b925060208a01995050600181019050611f59565b50829750879550505050505092915050565b60006020820190508181036000830152611fbd8184611f2e565b905092915050565b7f4f6e6c79206f776e65722063616e20737461727420766f74696e672121000000600082015250565b6000611ffb601d83611cd1565b915061200682611fc5565b602082019050919050565b6000602082019050818103600083015261202a81611fee565b9050919050565b7f566f74696e672053746172746564212100000000000000000000000000000000600082015250565b6000612067601083611cd1565b915061207282612031565b602082019050919050565b600060208201905081810360008301526120968161205a565b9050919050565b7f4f6e6c79206f776e65722063616e2072656769737465722043616e646964617460008201527f6521210000000000000000000000000000000000000000000000000000000000602082015250565b60006120f9602383611cd1565b91506121048261209d565b604082019050919050565b60006020820190508181036000830152612128816120ec565b9050919050565b7f4f776e65722063616e206e6f7420706172746963697061746521210000000000600082015250565b6000612165601b83611cd1565b91506121708261212f565b602082019050919050565b6000602082019050818103600083015261219481612158565b9050919050565b7f43616e64696461746520616c7265616479207265676973746572656400000000600082015250565b60006121d1601c83611cd1565b91506121dc8261219b565b602082019050919050565b60006020820190508181036000830152612200816121c4565b9050919050565b7f43616e6469646174652072656769737465726564212100000000000000000000600082015250565b600061223d601683611cd1565b915061224882612207565b602082019050919050565b6000602082019050818103600083015261226c81612230565b9050919050565b7f4e487b7100000000000000000000000000000000000000000000000000000000600052602260045260246000fd5b600060028204905060018216806122ba57607f821691505b6020821081036122cd576122cc612273565b5b50919050565b7f566f74696e67206e6f74207374617274656420796574206f7220656e6465642160008201527f2100000000000000000000000000000000000000000000000000000000000000602082015250565b600061232f602183611cd1565b915061233a826122d3565b604082019050919050565b6000602082019050818103600083015261235e81612322565b9050919050565b7f4f776e65722063616e206e6f7420766f74652121000000000000000000000000600082015250565b600061239b601483611cd1565b91506123a682612365565b602082019050919050565b600060208201905081810360008301526123ca8161238e565b9050919050565b7f566f746572206e6f742072656769737465726564212100000000000000000000600082015250565b6000612407601683611cd1565b9150612412826123d1565b602082019050919050565b60006020820190508181036000830152612436816123fa565b9050919050565b7f416c726561647920766f74656421210000000000000000000000000000000000600082015250565b6000612473600f83611cd1565b915061247e8261243d565b602082019050919050565b600060208201905081810360008301526124a281612466565b9050919050565b7f4e487b7100000000000000000000000000000000000000000000000000000000600052603260045260246000fd5b7f43616e646964617465206e6f7420726567697374657265640000000000000000600082015250565b600061250e601883611cd1565b9150612519826124d8565b602082019050919050565b6000602082019050818103600083015261253d81612501565b9050919050565b7f4e487b7100000000000000000000000000000000000000000000000000000000600052601160045260246000fd5b600061257e82611986565b91507fffffffffffffffffffffffffffffffffffffffffffffffffffffffffffffffff82036125b0576125af612544565b5b600182019050919050565b7f566f746564202121000000000000000000000000000000000000000000000000600082015250565b60006125f1600883611cd1565b91506125fc826125bb565b602082019050919050565b60006020820190508181036000830152612620816125e4565b9050919050565b7f4f6e6c79206f776e65722063616e206465636c6172652077696e6e6572212100600082015250565b600061265d601f83611cd1565b915061266882612627565b602082019050919050565b6000602082019050818103600083015261268c81612650565b9050919050565b7f4f6e6c79206f776e65722063616e2077686974656c697374207468652061646460008201527f7265737365732121000000000000000000000000000000000000000000000000602082015250565b60006126ef602883611cd1565b91506126fa82612693565b604082019050919050565b6000602082019050818103600083015261271e816126e2565b9050919050565b7f566f74657220616c726561647920726567697374657265642121000000000000600082015250565b600061275b601a83611cd1565b915061276682612725565b602082019050919050565b6000602082019050818103600083015261278a8161274e565b9050919050565b7f566f746572207265676973746572656421210000000000000000000000000000600082015250565b60006127c7601283611cd1565b91506127d282612791565b602082019050919050565b600060208201905081810360008301526127f6816127ba565b9050919050565b7f566f74696e672073746f70656421210000000000000000000000000000000000600082015250565b6000612833600f83611cd1565b915061283e826127fd565b602082019050919050565b6000602082019050818103600083015261286281612826565b905091905056fea2646970667358221220420c5de963504d6fb42d1ef7cc8edd3a2dad35250247c3792286c409114b5c6864736f6c634300080d0033",
  "immutableReferences": {},
  "source": "// SPDX-License-Identifier: GPL-3.0\n\npragma solidity ^0.8.13;\n\ncontract Voting {\n    address public owner;\n    address public winnerAddress;\n    string public eventName;\n    uint public totalVote;\n    bool votingStarted;\n    uint public totalVoters;\n    uint public totalRegisteredVoters;\n    struct Candidate {\n        string name;\n        uint age;\n        bool registered;\n        address candidateAddress;\n        uint votes;\n    }\n\n    struct Voter {\n        bool registered;\n        bool voted;\n    }\n\n    event success(string msg);\n    mapping(address => uint) public candidates;\n    Candidate[] public candidateList;\n    Candidate[] public winnerList;\n    mapping(address => Voter) public voterList;\n\n    constructor(string memory _eventName) {\n        owner = msg.sender;\n        eventName = _eventName;\n        totalVote = 0;\n        totalRegisteredVoters=0;\n        totalVoters=0;\n        votingStarted = false;\n    }\n\n    function registerCandidates(\n        string memory _name,\n        uint _age,\n        address _candidateAddress\n    ) external {\n        require(msg.sender == owner, \"Only owner can register Candidate!!\");\n        require(_candidateAddress != owner, \"Owner can not participate!!\");\n        require(\n            candidates[_candidateAddress] == 0,\n            \"Candidate already registered\"\n        );\n        Candidate memory candidate = Candidate({\n            name: _name,\n            age: _age,\n            registered: true,\n            votes: 0,\n            candidateAddress: _candidateAddress\n        });\n        if (candidateList.length == 0) {\n            //not pushing any candidate on location zero;\n            candidateList.push();\n        }\n        candidates[_candidateAddress] = candidateList.length;\n        candidateList.push(candidate);\n        emit success(\"Candidate registered!!\");\n    }\n\n    function whiteListAddress(address _voterAddress) external {\n        require(_voterAddress != owner, \"Owner can not vote!!\");\n        require(\n            msg.sender == owner,\n            \"Only owner can whitelist the addresses!!\"\n        );\n        require(\n            voterList[_voterAddress].registered == false,\n            \"Voter already registered!!\"\n        );\n        Voter memory voter = Voter({registered: true, voted: false});\n        totalRegisteredVoters++;\n        voterList[_voterAddress] = voter;\n        emit success(\"Voter registered!!\");\n    }\n\n    function startVoting() external {\n        require(msg.sender == owner, \"Only owner can start voting!!\");\n        votingStarted = true;\n        emit success(\"Voting Started!!\");\n    }\n\n    function putVote(address _candidateAddress) external {\n        require(votingStarted == true, \"Voting not started yet or ended!!\");\n        require(msg.sender != owner, \"Owner can not vote!!\");\n        require(\n            voterList[msg.sender].registered == true,\n            \"Voter not registered!!\"\n        );\n        require(voterList[msg.sender].voted == false, \"Already voted!!\");\n        require(\n            candidateList[candidates[_candidateAddress]].registered == true,\n            \"Candidate not registered\"\n        );\n\n        candidateList[candidates[_candidateAddress]].votes++;\n        voterList[msg.sender].voted = true;\n        totalVoters++;\n        uint candidateVotes = candidateList[candidates[_candidateAddress]]\n            .votes;\n\n        if (totalVote < candidateVotes) {\n            totalVote = candidateVotes;\n            winnerAddress = _candidateAddress;\n        }\n        emit success(\"Voted !!\");\n    }\n\n    function stopVoting() external {\n        require(msg.sender == owner, \"Only owner can start voting!!\");\n        votingStarted = false;\n        emit success(\"Voting stoped!!\");\n    }\n\n    function getAllCandidate() external view returns (Candidate[] memory list) {\n        return candidateList;\n    }\n\n    function votingStatus() external view returns (bool) {\n        return votingStarted;\n    }\n\n    function getRegisteredVotersCount() external view returns (uint) {\n        return totalRegisteredVoters;\n    }\n\n    function getVotedCount() external view returns (uint) {\n        return totalVoters;\n    }\n\n    function getWinner() public  returns (Candidate[] memory) {\n        require(msg.sender == owner, \"Only owner can declare winner!!\");\n        for(uint i = 0; i < candidateList.length; ++i){\n            if(candidateList[i].votes == totalVote){\n                winnerList.push(candidateList[i]);\n            }\n        }\n        return winnerList;\n    }\n}\n",
  "sourcePath": "/run/media/athul/Programing/blockvote/contracts/contracts/Voting.sol",
  "compiler": {
    "name": "solc",
    "version": "0.8.13+commit.abaa5c0e.Emscripten.clang"
  },
  "schemaVersion": "3.4.16",
  "updatedAt": "2024-02-09T10:29:05.928Z",
  "networkType": "ethereum",
  "devdoc": {
    "kind": "dev",
    "methods": {},
    "version": 1
  },
  "userdoc": {
    "kind": "user",
    "methods": {},
    "version": 1
  }
}